:020000000329D2
:0E000600213083120313FD00FD0B07280800B4
:100014000F3083120313FC004730FD00FD0B102842
:0A002400FC0B10280000000008008B
:06002E00000000000800C4
:1000340083120313D31B2028861321288617531BEE
:100044002528061326280617D31A2A2886122B28B1
:100054008616531A2F2806123028061649183428F3
:10006400061435280610861417208610D3193C2848
:1000740086133D288617531941280613422806176C
:10008400D318462886124728861653184B2806127A
:100094004C280616491850280614512806108614B0
:1000A40017208610491C58280A20592803200800C4
:0E00B400831203134D088A004C0882000800D6
:1000C2008312031349105208D3001A20491408005E
:1000D2008316031386100610061286120613861361
:1000E20083128610061086130613861206120A2041
:1000F2000A200A20861606168614172086100A2061
:100102008614172086100A208614172086100A20CB
:1001120006128614172086100A20861417208610CD
:10012200861286178614172086100A208613061652
:1001320086141720861006128614172086100A20AD
:1001420086141720861006168614172086100A2099
:1001520006128614172086108617061786160616AC
:0C0162008614172086100A20491408009B
:10016E00C928803083120313CE00DC28C030CE00A5
:10017E00DC289430CE00DC28D430CE00DC28803051
:10018E00CE00DC28831203134E08013A0319B82857
:10019E004E08023A0319BD284E08033A0319C02827
:1001AE004E08043A0319C328C6284F03F0004E0820
:1001BE00F0077008CE007008D3001A204910D10144
:1001CE0051085007840000080319F52851085007FC
:1001DE0084000008D2006120D10AE72849140800E3
:1001EE005A208A110A128000840ACC0A0319CD0AF9
:0801FE00F003031DF7280800BF
:10020600AA210730831203139F00831686018312E7
:10021600860169200130D3001A200C30D3001A2041
:100226000130CE000130CF002B30D000B720023095
:10023600CE000130CF003A30D000B7200330FB00AB
:100246000830FC007730FD00FD0B2729FC0B272921
:10025600FB0B27290130D3001A200230CE000230D2
:10026600CF002030D000B720CA01CB018030F0008B
:1002760080304B067002031D42294A08043C031CC9
:1002860058291830D3001A200230FB000430FC0035
:10029600BA30FD00FD0B4D29FC0B4D29FB0B4D29FA
:1002A6000000CA0A0319CB0A3929CA01CB018030DA
:1002B600F00080304B067002031D63294A08093C92
:1002C600031C79291C30D3001A200230FB000430AD
:1002D600FC00BA30FD00FD0B6E29FC0B6E29FB0BF2
:1002E6006E290000CA0A0319CB0A5A2937297A2926
:1003540020308400293083120313F0008030CC0055
:080364000130CD00F720080074
:100300006834653468346534683465346834653419
:060310006834653400347E
:10031600683465346C346C34773420346334683430
:0E03260061346D3469346E34643475340034DF
:10033400683465346C346C346F34773420346D3401
:0E034400753464346134723461342034003412
:02400E006A2125
:00000001FF
